{
  "contractName": "ArtWorkContract",
  "abi": [
    {
      "constant": true,
      "inputs": [],
      "name": "artHash",
      "outputs": [
        {
          "name": "",
          "type": "bytes32"
        }
      ],
      "payable": false,
      "stateMutability": "view",
      "type": "function"
    },
    {
      "constant": true,
      "inputs": [],
      "name": "owner",
      "outputs": [
        {
          "name": "",
          "type": "address"
        }
      ],
      "payable": false,
      "stateMutability": "view",
      "type": "function"
    },
    {
      "constant": true,
      "inputs": [
        {
          "name": "",
          "type": "uint256"
        }
      ],
      "name": "logs",
      "outputs": [
        {
          "name": "currentOwner",
          "type": "address"
        },
        {
          "name": "ownershipStartTime",
          "type": "uint256"
        },
        {
          "name": "ownershipEndTime",
          "type": "uint256"
        }
      ],
      "payable": false,
      "stateMutability": "view",
      "type": "function"
    },
    {
      "inputs": [
        {
          "name": "_artHash",
          "type": "bytes32"
        }
      ],
      "payable": false,
      "stateMutability": "nonpayable",
      "type": "constructor"
    },
    {
      "anonymous": false,
      "inputs": [
        {
          "indexed": true,
          "name": "previousOwner",
          "type": "address"
        },
        {
          "indexed": true,
          "name": "newOwner",
          "type": "address"
        }
      ],
      "name": "OwnershipTransferred",
      "type": "event"
    },
    {
      "constant": true,
      "inputs": [],
      "name": "getLogLength",
      "outputs": [
        {
          "name": "",
          "type": "uint256"
        }
      ],
      "payable": false,
      "stateMutability": "view",
      "type": "function"
    },
    {
      "constant": false,
      "inputs": [
        {
          "name": "_newOwner",
          "type": "address"
        }
      ],
      "name": "transferOwnership",
      "outputs": [],
      "payable": false,
      "stateMutability": "nonpayable",
      "type": "function"
    }
  ],
  "bytecode": "0x608060405234801561001057600080fd5b506040516020806105f78339810180604052602081101561003057600080fd5b8101908080519060200190929190505050336000806101000a81548173ffffffffffffffffffffffffffffffffffffffff021916908373ffffffffffffffffffffffffffffffffffffffff1602179055504260028190555080600181905550506105588061009f6000396000f3fe60806040526004361061006d576000357c0100000000000000000000000000000000000000000000000000000000900463ffffffff16806310102d77146100725780634f33a0131461009d5780638da5cb5b146100c8578063e79899bd1461011f578063f2fde38b146101a8575b600080fd5b34801561007e57600080fd5b506100876101f9565b6040518082815260200191505060405180910390f35b3480156100a957600080fd5b506100b2610206565b6040518082815260200191505060405180910390f35b3480156100d457600080fd5b506100dd61020c565b604051808273ffffffffffffffffffffffffffffffffffffffff1673ffffffffffffffffffffffffffffffffffffffff16815260200191505060405180910390f35b34801561012b57600080fd5b506101586004803603602081101561014257600080fd5b8101908080359060200190929190505050610231565b604051808473ffffffffffffffffffffffffffffffffffffffff1673ffffffffffffffffffffffffffffffffffffffff168152602001838152602001828152602001935050505060405180910390f35b3480156101b457600080fd5b506101f7600480360360208110156101cb57600080fd5b81019080803573ffffffffffffffffffffffffffffffffffffffff16906020019092919050505061028a565b005b6000600380549050905090565b60015481565b6000809054906101000a900473ffffffffffffffffffffffffffffffffffffffff1681565b60038181548110151561024057fe5b90600052602060002090600302016000915090508060000160009054906101000a900473ffffffffffffffffffffffffffffffffffffffff16908060010154908060020154905083565b6000809054906101000a900473ffffffffffffffffffffffffffffffffffffffff1673ffffffffffffffffffffffffffffffffffffffff163373ffffffffffffffffffffffffffffffffffffffff161415156102e557600080fd5b8073ffffffffffffffffffffffffffffffffffffffff166000809054906101000a900473ffffffffffffffffffffffffffffffffffffffff1673ffffffffffffffffffffffffffffffffffffffff1614156103a8576040517f08c379a000000000000000000000000000000000000000000000000000000000815260040180806020018281038252601e8152602001807f4e6577204f776e65722063616e6e6f74206265206f6c64204f776e657221000081525060200191505060405180910390fd5b60036060604051908101604052808373ffffffffffffffffffffffffffffffffffffffff1681526020016002548152602001428152509080600181540180825580915050906001820390600052602060002090600302016000909192909190915060008201518160000160006101000a81548173ffffffffffffffffffffffffffffffffffffffff021916908373ffffffffffffffffffffffffffffffffffffffff160217905550602082015181600101556040820151816002015550505042600281905550806000806101000a81548173ffffffffffffffffffffffffffffffffffffffff021916908373ffffffffffffffffffffffffffffffffffffffff1602179055508073ffffffffffffffffffffffffffffffffffffffff166000809054906101000a900473ffffffffffffffffffffffffffffffffffffffff1673ffffffffffffffffffffffffffffffffffffffff167f8be0079c531659141344cd1fd0a4f28419497f9722a3daafe3b4186f6b6457e060405160405180910390a35056fea165627a7a72305820559a15b5d47cbcdecec6e691e4f674e21ffcc218265dff7d61d058ec1f41ef510029",
  "source": "pragma solidity >=0.4.22 <0.7.0;\r\n\r\ncontract ArtWorkContract {\r\n  address public owner;\r\n  bytes32 public artHash;\r\n  uint timestamp;\r\n  Log[] public logs;\r\n  \r\n    modifier isOwner() {\r\n        require(msg.sender == owner);\r\n        _;\r\n    }\r\n  \r\n    struct Log {\r\n        address currentOwner;\r\n        uint ownershipStartTime;\r\n        uint ownershipEndTime;\r\n    }\r\n    \r\n    // triggers event of the Ownership transfer\r\n    event OwnershipTransferred(address indexed previousOwner, address indexed newOwner);\r\n    \r\n    \r\n    constructor(bytes32 _artHash) public {\r\n        owner = msg.sender;\r\n        timestamp = now;\r\n        artHash = _artHash;\r\n    }\r\n    \r\n    \r\n    function getLogLength() public view returns (uint) {\r\n        return logs.length;    \r\n    }\r\n    \r\n    // function can only be called from the previous owner\r\n    function transferOwnership(address _newOwner) public isOwner {\r\n        \r\n        if(owner == _newOwner) {\r\n            revert('New Owner cannot be old Owner!');\r\n        }\r\n        \r\n        logs.push(Log(_newOwner, timestamp, now));\r\n        timestamp = now;\r\n        owner = _newOwner;\r\n        emit OwnershipTransferred(owner, _newOwner);\r\n    }\r\n    \r\n}",
  "sourcePath": "C:/Users/julia/Dev/Studium/BlockArt/blockchain/contracts/ArtWorkContract.sol",
  "compiler": {
    "name": "solc",
    "version": "0.5.0+commit.1d4f565a.Emscripten.clang"
  },
  "schemaVersion": "3.0.1",
  "updatedAt": "2020-01-22T17:41:39.864Z",
  "devdoc": {
    "methods": {}
  },
  "userdoc": {
    "methods": {}
  }
}